{
  "address": "0x551f19fb2DC23711259619563Fb3eaD418a57F0d",
  "abi": [
    {
      "anonymous": false,
      "inputs": [
        {
          "indexed": true,
          "internalType": "address",
          "name": "previousOwner",
          "type": "address"
        },
        {
          "indexed": true,
          "internalType": "address",
          "name": "newOwner",
          "type": "address"
        }
      ],
      "name": "OwnershipTransferred",
      "type": "event"
    },
    {
      "anonymous": false,
      "inputs": [
        {
          "indexed": false,
          "internalType": "string",
          "name": "_flightCode",
          "type": "string"
        },
        {
          "indexed": false,
          "internalType": "uint256",
          "name": "_ticketId",
          "type": "uint256"
        },
        {
          "indexed": false,
          "internalType": "string",
          "name": "_from",
          "type": "string"
        },
        {
          "indexed": false,
          "internalType": "string",
          "name": "_to",
          "type": "string"
        },
        {
          "indexed": false,
          "internalType": "string",
          "name": "_date",
          "type": "string"
        },
        {
          "indexed": false,
          "internalType": "uint256",
          "name": "_price",
          "type": "uint256"
        },
        {
          "indexed": false,
          "internalType": "uint256",
          "name": "_seat",
          "type": "uint256"
        },
        {
          "indexed": false,
          "internalType": "address",
          "name": "_user",
          "type": "address"
        },
        {
          "indexed": false,
          "internalType": "uint256",
          "name": "_luggageWeight",
          "type": "uint256"
        }
      ],
      "name": "buyTicketEvent",
      "type": "event"
    },
    {
      "anonymous": false,
      "inputs": [
        {
          "indexed": false,
          "internalType": "string",
          "name": "_flightCode",
          "type": "string"
        },
        {
          "indexed": false,
          "internalType": "uint256",
          "name": "_ticketId",
          "type": "uint256"
        },
        {
          "indexed": false,
          "internalType": "string",
          "name": "_from",
          "type": "string"
        },
        {
          "indexed": false,
          "internalType": "string",
          "name": "_to",
          "type": "string"
        },
        {
          "indexed": false,
          "internalType": "string",
          "name": "_date",
          "type": "string"
        },
        {
          "indexed": false,
          "internalType": "uint256",
          "name": "_price",
          "type": "uint256"
        },
        {
          "indexed": false,
          "internalType": "uint256",
          "name": "_seatNumber",
          "type": "uint256"
        },
        {
          "indexed": false,
          "internalType": "address",
          "name": "_user",
          "type": "address"
        },
        {
          "indexed": false,
          "internalType": "uint256",
          "name": "_luggageWeight",
          "type": "uint256"
        }
      ],
      "name": "checkInEvent",
      "type": "event"
    },
    {
      "anonymous": false,
      "inputs": [
        {
          "indexed": false,
          "internalType": "string",
          "name": "_flightCode",
          "type": "string"
        },
        {
          "indexed": false,
          "internalType": "uint256",
          "name": "_ticketId",
          "type": "uint256"
        },
        {
          "indexed": false,
          "internalType": "string",
          "name": "_from",
          "type": "string"
        },
        {
          "indexed": false,
          "internalType": "string",
          "name": "_to",
          "type": "string"
        },
        {
          "indexed": false,
          "internalType": "string",
          "name": "_date",
          "type": "string"
        },
        {
          "indexed": false,
          "internalType": "uint256",
          "name": "_price",
          "type": "uint256"
        },
        {
          "indexed": false,
          "internalType": "uint256",
          "name": "_seat",
          "type": "uint256"
        }
      ],
      "name": "createTicketEvent",
      "type": "event"
    },
    {
      "inputs": [
        {
          "internalType": "uint256",
          "name": "_ticketId",
          "type": "uint256"
        }
      ],
      "name": "buyTicket",
      "outputs": [],
      "stateMutability": "payable",
      "type": "function"
    },
    {
      "inputs": [
        {
          "internalType": "uint256",
          "name": "_ticketId",
          "type": "uint256"
        },
        {
          "internalType": "uint256",
          "name": "_seat",
          "type": "uint256"
        }
      ],
      "name": "checkIn",
      "outputs": [],
      "stateMutability": "nonpayable",
      "type": "function"
    },
    {
      "inputs": [
        {
          "internalType": "string",
          "name": "_flightCode",
          "type": "string"
        },
        {
          "internalType": "string",
          "name": "_from",
          "type": "string"
        },
        {
          "internalType": "string",
          "name": "_to",
          "type": "string"
        },
        {
          "internalType": "string",
          "name": "_date",
          "type": "string"
        },
        {
          "internalType": "uint256",
          "name": "_price",
          "type": "uint256"
        },
        {
          "internalType": "uint256",
          "name": "_seat",
          "type": "uint256"
        }
      ],
      "name": "createTicket",
      "outputs": [],
      "stateMutability": "nonpayable",
      "type": "function"
    },
    {
      "inputs": [
        {
          "internalType": "uint256",
          "name": "_ticketId",
          "type": "uint256"
        }
      ],
      "name": "getSeatMap",
      "outputs": [
        {
          "internalType": "bool[]",
          "name": "",
          "type": "bool[]"
        }
      ],
      "stateMutability": "view",
      "type": "function"
    },
    {
      "inputs": [],
      "name": "id",
      "outputs": [
        {
          "internalType": "uint256",
          "name": "",
          "type": "uint256"
        }
      ],
      "stateMutability": "view",
      "type": "function"
    },
    {
      "inputs": [
        {
          "internalType": "uint256",
          "name": "_ticketId",
          "type": "uint256"
        },
        {
          "internalType": "address",
          "name": "_user",
          "type": "address"
        }
      ],
      "name": "isCheckedIn",
      "outputs": [
        {
          "internalType": "bool",
          "name": "",
          "type": "bool"
        }
      ],
      "stateMutability": "view",
      "type": "function"
    },
    {
      "inputs": [],
      "name": "owner",
      "outputs": [
        {
          "internalType": "address",
          "name": "",
          "type": "address"
        }
      ],
      "stateMutability": "view",
      "type": "function"
    },
    {
      "inputs": [],
      "name": "renounceOwnership",
      "outputs": [],
      "stateMutability": "nonpayable",
      "type": "function"
    },
    {
      "inputs": [
        {
          "internalType": "uint256",
          "name": "",
          "type": "uint256"
        }
      ],
      "name": "tickets",
      "outputs": [
        {
          "internalType": "string",
          "name": "flightCode",
          "type": "string"
        },
        {
          "internalType": "uint256",
          "name": "id",
          "type": "uint256"
        },
        {
          "internalType": "string",
          "name": "from",
          "type": "string"
        },
        {
          "internalType": "string",
          "name": "to",
          "type": "string"
        },
        {
          "internalType": "string",
          "name": "date",
          "type": "string"
        },
        {
          "internalType": "uint256",
          "name": "price",
          "type": "uint256"
        },
        {
          "internalType": "uint256",
          "name": "seat",
          "type": "uint256"
        },
        {
          "internalType": "uint256",
          "name": "availableSeats",
          "type": "uint256"
        }
      ],
      "stateMutability": "view",
      "type": "function"
    },
    {
      "inputs": [
        {
          "internalType": "address",
          "name": "newOwner",
          "type": "address"
        }
      ],
      "name": "transferOwnership",
      "outputs": [],
      "stateMutability": "nonpayable",
      "type": "function"
    },
    {
      "inputs": [],
      "name": "withdraw",
      "outputs": [],
      "stateMutability": "nonpayable",
      "type": "function"
    }
  ],
  "transactionHash": "0x00d07fb4330b6ef3d576dffd0a377b154df761ff1cc09be6809f533bd7b9347a",
  "args": [],
  "numDeployments": 1,
  "solcInputHash": "719cfeeb6a82d249233d5053677ab06d",
  "bytecode": "0x608060405234801561001057600080fd5b5061001a3361001f565b61006f565b600080546001600160a01b038381166001600160a01b0319831681178455604051919092169283917f8be0079c531659141344cd1fd0a4f28419497f9722a3daafe3b4186f6b6457e09190a35050565b6116de8061007e6000396000f3fe60806040526004361061009c5760003560e01c80638da5cb5b116100645780638da5cb5b14610149578063af640d0f14610171578063e7b6c2e014610195578063e825fd81146101c2578063f2fde38b146101e2578063f516f88e1461020257600080fd5b806339da8a24146100a15780633ccfd60b146100d657806350b44712146100ed57806367dd74ca14610121578063715018a614610134575b600080fd5b3480156100ad57600080fd5b506100c16100bc366004611072565b610222565b60405190151581526020015b60405180910390f35b3480156100e257600080fd5b506100eb61026c565b005b3480156100f957600080fd5b5061010d61010836600461109e565b61030b565b6040516100cd9897969594939291906110fd565b6100eb61012f36600461109e565b610583565b34801561014057600080fd5b506100eb6108e3565b34801561015557600080fd5b506000546040516001600160a01b0390911681526020016100cd565b34801561017d57600080fd5b5061018760015481565b6040519081526020016100cd565b3480156101a157600080fd5b506101b56101b036600461109e565b6108f7565b6040516100cd9190611174565b3480156101ce57600080fd5b506100eb6101dd36600461125d565b610993565b3480156101ee57600080fd5b506100eb6101fd36600461131c565b610aec565b34801561020e57600080fd5b506100eb61021d36600461133e565b610b62565b60006002838154811061023757610237611360565b600091825260208083206001600160a01b03861684526009600c90930201919091019052604090205460ff1690505b92915050565b610274610ef2565b604051600090339047908381818185875af1925050503d80600081146102b6576040519150601f19603f3d011682016040523d82523d6000602084013e6102bb565b606091505b50509050806103085760405162461bcd60e51b81526020600482015260146024820152732330b4b632b2103a379039b2b7321022ba3432b960611b60448201526064015b60405180910390fd5b50565b6002818154811061031b57600080fd5b90600052602060002090600c020160009150905080600001805461033e90611376565b80601f016020809104026020016040519081016040528092919081815260200182805461036a90611376565b80156103b75780601f1061038c576101008083540402835291602001916103b7565b820191906000526020600020905b81548152906001019060200180831161039a57829003601f168201915b5050505050908060010154908060020180546103d290611376565b80601f01602080910402602001604051908101604052809291908181526020018280546103fe90611376565b801561044b5780601f106104205761010080835404028352916020019161044b565b820191906000526020600020905b81548152906001019060200180831161042e57829003601f168201915b50505050509080600301805461046090611376565b80601f016020809104026020016040519081016040528092919081815260200182805461048c90611376565b80156104d95780601f106104ae576101008083540402835291602001916104d9565b820191906000526020600020905b8154815290600101906020018083116104bc57829003601f168201915b5050505050908060040180546104ee90611376565b80601f016020809104026020016040519081016040528092919081815260200182805461051a90611376565b80156105675780601f1061053c57610100808354040283529160200191610567565b820191906000526020600020905b81548152906001019060200180831161054a57829003601f168201915b5050505050908060050154908060060154908060070154905088565b60006002828154811061059857610598611360565b90600052602060002090600c020160070154116105ec5760405162461bcd60e51b81526020600482015260126024820152714e6f20617661696c61626c6520736561747360701b60448201526064016102ff565b600281815481106105ff576105ff611360565b90600052602060002090600c0201600501543410156106555760405162461bcd60e51b8152602060048201526012602482015271496e73756666696369656e742066756e647360701b60448201526064016102ff565b6002818154811061066857610668611360565b60009182526020808320338452600a600c90930201919091019052604090205460ff16156106d85760405162461bcd60e51b815260206004820152601760248201527f416c726561647920626f756768742061207469636b657400000000000000000060448201526064016102ff565b6000600a90506064600283815481106106f3576106f3611360565b90600052602060002090600c02016005015461070f91906113c6565b61071a90606e6113e8565b3410610724575060145b6002828154811061073757610737611360565b6000918252602082206007600c9092020101805491610755836113ff565b919050555060016002838154811061076f5761076f611360565b60009182526020808320338452600c92909202909101600a01905260409020805460ff1916911515919091179055600280547f5aaaae78d32c85b261eb268d39787abf7e004f2e17f971ce84ac62613ae279749190849081106107d4576107d4611360565b90600052602060002090600c0201600001600284815481106107f8576107f8611360565b90600052602060002090600c0201600101546002858154811061081d5761081d611360565b90600052602060002090600c02016002016002868154811061084157610841611360565b90600052602060002090600c02016003016002878154811061086557610865611360565b90600052602060002090600c02016004016002888154811061088957610889611360565b90600052602060002090600c020160050154600289815481106108ae576108ae611360565b90600052602060002090600c02016006015433896040516108d799989796959493929190611493565b60405180910390a15050565b6108eb610ef2565b6108f56000610f4c565b565b60606002828154811061090c5761090c611360565b90600052602060002090600c020160080180548060200260200160405190810160405280929190818152602001828054801561098757602002820191906000526020600020906000905b825461010083900a900460ff1615158152602060019283018181049485019490930390920291018084116109565790505b50505050509050919050565b61099b610ef2565b8060008167ffffffffffffffff8111156109b7576109b76111ba565b6040519080825280602002602001820160405280156109e0578160200160208202803683370190505b5060028054600190810180835560008381529394506109ff919061151c565b81548110610a0f57610a0f611360565b60009182526020909120600c90910201905080610a2c8a8261157e565b50600254610a3c9060019061151c565b600181815582015560028101610a52898261157e565b5060038101610a61888261157e565b5060048101610a70878261157e565b506005810185905560068101849055600781018390558151610a9b9060088301906020850190610f9c565b507f82baccc242b8743d183af6ee4cb94f3bfe0702b4f725d622de01418a999f2066896001548a8a8a8a8a604051610ad9979695949392919061163e565b60405180910390a1505050505050505050565b610af4610ef2565b6001600160a01b038116610b595760405162461bcd60e51b815260206004820152602660248201527f4f776e61626c653a206e6577206f776e657220697320746865207a65726f206160448201526564647265737360d01b60648201526084016102ff565b61030881610f4c565b60028281548110610b7557610b75611360565b60009182526020808320338452600a600c90930201919091019052604090205460ff16610be45760405162461bcd60e51b815260206004820152601c60248201527f596f752068617665206e6f7420626f756768742061207469636b65740000000060448201526064016102ff565b60028281548110610bf757610bf7611360565b600091825260208083203384526009600c90930201919091019052604090205460ff1615610c675760405162461bcd60e51b815260206004820152601b60248201527f596f75206861766520616c726561647920636865636b656420696e000000000060448201526064016102ff565b60028281548110610c7a57610c7a611360565b90600052602060002090600c02016008018181548110610c9c57610c9c611360565b90600052602060002090602091828204019190069054906101000a900460ff1615610d015760405162461bcd60e51b815260206004820152601560248201527453656174206973206e6f7420617661696c61626c6560581b60448201526064016102ff565b600160028381548110610d1657610d16611360565b90600052602060002090600c02016008018281548110610d3857610d38611360565b90600052602060002090602091828204019190066101000a81548160ff021916908315150217905550600160028381548110610d7657610d76611360565b60009182526020808320338452600c92909202909101600901905260409020805460ff19169115159190911790556002805482919084908110610dbb57610dbb611360565b60009182526020808320338452600b600c909302019190910190526040902055600280547f6e5a3df8593e5302fd0f321228bcbf54bb4c3a2e18d5f76014b1e46b878de9c3919084908110610e1257610e12611360565b90600052602060002090600c020160000160028481548110610e3657610e36611360565b90600052602060002090600c02016001015460028581548110610e5b57610e5b611360565b90600052602060002090600c020160020160028681548110610e7f57610e7f611360565b90600052602060002090600c020160030160028781548110610ea357610ea3611360565b90600052602060002090600c020160040160028881548110610ec757610ec7611360565b90600052602060002090600c0201600501548733600c6040516108d799989796959493929190611493565b6000546001600160a01b031633146108f55760405162461bcd60e51b815260206004820181905260248201527f4f776e61626c653a2063616c6c6572206973206e6f7420746865206f776e657260448201526064016102ff565b600080546001600160a01b038381166001600160a01b0319831681178455604051919092169283917f8be0079c531659141344cd1fd0a4f28419497f9722a3daafe3b4186f6b6457e09190a35050565b82805482825590600052602060002090601f016020900481019282156110315791602002820160005b8382111561100257835183826101000a81548160ff0219169083151502179055509260200192600101602081600001049283019260010302610fc5565b801561102f5782816101000a81549060ff0219169055600101602081600001049283019260010302611002565b505b5061103d929150611041565b5090565b5b8082111561103d5760008155600101611042565b80356001600160a01b038116811461106d57600080fd5b919050565b6000806040838503121561108557600080fd5b8235915061109560208401611056565b90509250929050565b6000602082840312156110b057600080fd5b5035919050565b6000815180845260005b818110156110dd576020818501810151868301820152016110c1565b506000602082860101526020601f19601f83011685010191505092915050565b60006101008083526111118184018c6110b7565b9050896020840152828103604084015261112b818a6110b7565b9050828103606084015261113f81896110b7565b9050828103608084015261115381886110b7565b60a0840196909652505060c081019290925260e09091015295945050505050565b6020808252825182820181905260009190848201906040850190845b818110156111ae578351151583529284019291840191600101611190565b50909695505050505050565b634e487b7160e01b600052604160045260246000fd5b600082601f8301126111e157600080fd5b813567ffffffffffffffff808211156111fc576111fc6111ba565b604051601f8301601f19908116603f01168101908282118183101715611224576112246111ba565b8160405283815286602085880101111561123d57600080fd5b836020870160208301376000602085830101528094505050505092915050565b60008060008060008060c0878903121561127657600080fd5b863567ffffffffffffffff8082111561128e57600080fd5b61129a8a838b016111d0565b975060208901359150808211156112b057600080fd5b6112bc8a838b016111d0565b965060408901359150808211156112d257600080fd5b6112de8a838b016111d0565b955060608901359150808211156112f457600080fd5b5061130189828a016111d0565b9350506080870135915060a087013590509295509295509295565b60006020828403121561132e57600080fd5b61133782611056565b9392505050565b6000806040838503121561135157600080fd5b50508035926020909101359150565b634e487b7160e01b600052603260045260246000fd5b600181811c9082168061138a57607f821691505b6020821081036113aa57634e487b7160e01b600052602260045260246000fd5b50919050565b634e487b7160e01b600052601160045260246000fd5b6000826113e357634e487b7160e01b600052601260045260246000fd5b500490565b8082028115828204841417610266576102666113b0565b60008161140e5761140e6113b0565b506000190190565b6000815461142381611376565b808552602060018381168015611440576001811461145a57611488565b60ff1985168884015283151560051b880183019550611488565b866000528260002060005b858110156114805781548a8201860152908301908401611465565b890184019650505b505050505092915050565b60006101208083526114a78184018d611416565b90508a602084015282810360408401526114c1818b611416565b905082810360608401526114d5818a611416565b905082810360808401526114e98189611416565b60a0840197909752505060c08101939093526001600160a01b039190911660e08301526101009091015295945050505050565b81810381811115610266576102666113b0565b601f82111561157957600081815260208120601f850160051c810160208610156115565750805b601f850160051c820191505b8181101561157557828155600101611562565b5050505b505050565b815167ffffffffffffffff811115611598576115986111ba565b6115ac816115a68454611376565b8461152f565b602080601f8311600181146115e157600084156115c95750858301515b600019600386901b1c1916600185901b178555611575565b600085815260208120601f198616915b82811015611610578886015182559484019460019091019084016115f1565b508582101561162e5787850151600019600388901b60f8161c191681555b5050505050600190811b01905550565b60e08152600061165160e083018a6110b7565b886020840152828103604084015261166981896110b7565b9050828103606084015261167d81886110b7565b9050828103608084015261169181876110b7565b60a0840195909552505060c001529594505050505056fea2646970667358221220df92d531142f2b6aa2eb90fe7c9c6e02aabd637cb8828eed6996a2fae15db53564736f6c63430008110033",
  "devdoc": {
    "kind": "dev",
    "methods": {
      "owner()": {
        "details": "Returns the address of the current owner."
      },
      "renounceOwnership()": {
        "details": "Leaves the contract without owner. It will not be possible to call `onlyOwner` functions anymore. Can only be called by the current owner. NOTE: Renouncing ownership will leave the contract without an owner, thereby removing any functionality that is only available to the owner."
      },
      "transferOwnership(address)": {
        "details": "Transfers ownership of the contract to a new account (`newOwner`). Can only be called by the current owner."
      }
    },
    "version": 1
  },
  "userdoc": {
    "kind": "user",
    "methods": {},
    "version": 1
  },
  "storageLayout": {
    "storage": [
      {
        "astId": 7,
        "contract": "contracts/YourContract.sol:YourContract",
        "label": "_owner",
        "offset": 0,
        "slot": "0",
        "type": "t_address"
      },
      {
        "astId": 141,
        "contract": "contracts/YourContract.sol:YourContract",
        "label": "id",
        "offset": 0,
        "slot": "1",
        "type": "t_uint256"
      },
      {
        "astId": 177,
        "contract": "contracts/YourContract.sol:YourContract",
        "label": "tickets",
        "offset": 0,
        "slot": "2",
        "type": "t_array(t_struct(Ticket)173_storage)dyn_storage"
      }
    ],
    "types": {
      "t_address": {
        "encoding": "inplace",
        "label": "address",
        "numberOfBytes": "20"
      },
      "t_array(t_bool)dyn_storage": {
        "base": "t_bool",
        "encoding": "dynamic_array",
        "label": "bool[]",
        "numberOfBytes": "32"
      },
      "t_array(t_struct(Ticket)173_storage)dyn_storage": {
        "base": "t_struct(Ticket)173_storage",
        "encoding": "dynamic_array",
        "label": "struct YourContract.Ticket[]",
        "numberOfBytes": "32"
      },
      "t_bool": {
        "encoding": "inplace",
        "label": "bool",
        "numberOfBytes": "1"
      },
      "t_mapping(t_address,t_bool)": {
        "encoding": "mapping",
        "key": "t_address",
        "label": "mapping(address => bool)",
        "numberOfBytes": "32",
        "value": "t_bool"
      },
      "t_mapping(t_address,t_uint256)": {
        "encoding": "mapping",
        "key": "t_address",
        "label": "mapping(address => uint256)",
        "numberOfBytes": "32",
        "value": "t_uint256"
      },
      "t_string_storage": {
        "encoding": "bytes",
        "label": "string",
        "numberOfBytes": "32"
      },
      "t_struct(Ticket)173_storage": {
        "encoding": "inplace",
        "label": "struct YourContract.Ticket",
        "members": [
          {
            "astId": 143,
            "contract": "contracts/YourContract.sol:YourContract",
            "label": "flightCode",
            "offset": 0,
            "slot": "0",
            "type": "t_string_storage"
          },
          {
            "astId": 145,
            "contract": "contracts/YourContract.sol:YourContract",
            "label": "id",
            "offset": 0,
            "slot": "1",
            "type": "t_uint256"
          },
          {
            "astId": 147,
            "contract": "contracts/YourContract.sol:YourContract",
            "label": "from",
            "offset": 0,
            "slot": "2",
            "type": "t_string_storage"
          },
          {
            "astId": 149,
            "contract": "contracts/YourContract.sol:YourContract",
            "label": "to",
            "offset": 0,
            "slot": "3",
            "type": "t_string_storage"
          },
          {
            "astId": 151,
            "contract": "contracts/YourContract.sol:YourContract",
            "label": "date",
            "offset": 0,
            "slot": "4",
            "type": "t_string_storage"
          },
          {
            "astId": 153,
            "contract": "contracts/YourContract.sol:YourContract",
            "label": "price",
            "offset": 0,
            "slot": "5",
            "type": "t_uint256"
          },
          {
            "astId": 155,
            "contract": "contracts/YourContract.sol:YourContract",
            "label": "seat",
            "offset": 0,
            "slot": "6",
            "type": "t_uint256"
          },
          {
            "astId": 157,
            "contract": "contracts/YourContract.sol:YourContract",
            "label": "availableSeats",
            "offset": 0,
            "slot": "7",
            "type": "t_uint256"
          },
          {
            "astId": 160,
            "contract": "contracts/YourContract.sol:YourContract",
            "label": "seats",
            "offset": 0,
            "slot": "8",
            "type": "t_array(t_bool)dyn_storage"
          },
          {
            "astId": 164,
            "contract": "contracts/YourContract.sol:YourContract",
            "label": "isCheckIn",
            "offset": 0,
            "slot": "9",
            "type": "t_mapping(t_address,t_bool)"
          },
          {
            "astId": 168,
            "contract": "contracts/YourContract.sol:YourContract",
            "label": "isItSold",
            "offset": 0,
            "slot": "10",
            "type": "t_mapping(t_address,t_bool)"
          },
          {
            "astId": 172,
            "contract": "contracts/YourContract.sol:YourContract",
            "label": "ownerSeat",
            "offset": 0,
            "slot": "11",
            "type": "t_mapping(t_address,t_uint256)"
          }
        ],
        "numberOfBytes": "384"
      },
      "t_uint256": {
        "encoding": "inplace",
        "label": "uint256",
        "numberOfBytes": "32"
      }
    }
  }
}